:020000040800F2
:10000000000005204D880008F1840008FF840008E6
:10001000058500080B850008118500080000000018
:10002000000000000000000000000000178500082C
:100030002585000800000000338500084185000880
:100040009D8800089D8800089D8800089D880008FC
:100050009D8800089D8800089D8800089D880008EC
:100060009D8800089D8800089D8800089D880008DC
:100070009D8800089D8800089D8800089D880008CC
:100080009D8800089D880008518500089D8800080B
:100090009D8800089D8800089D8800089D880008AC
:1000A0009D8800089D8800089D88000865850008D7
:1000B0009D8800089D8800089D8800089D8800088C
:1000C0009D8800089D8800089D8800089D8800087C
:1000D0009D8800089D8800089D8800089D8800086C
:1000E0009D8800089D8800089D8800089D8800085C
:1000F0009D8800089D8800089D8800089D8800084C
:100100009D8800089D8800089D8800089D8800083B
:100110009D8800089D880008798500089D88000852
:100120009D8800089D8800089D8800089D8800081B
:100130009D8800089D8800089D8800089D8800080B
:100140009D8800089D8800089D8800089D880008FB
:100150009D8800089D8800089D8800089D880008EB
:100160009D8800089D8800089D8800089D880008DB
:100170009D8800089D8800089D88000800000000F8
:100180009D8800089D8800089D8800089D880008BB
:100190009D8800089D8800089D8800089D880008AB
:1001A0008D8500089D880008A18500089D880008AD
:1001B0009D8800089D8800089D8800089D8800088B
:0801C0009D8800089D880008DD
:1001D00010B5054C237833B9044B13B10448AFF381
:1001E00000800123237010BD740000200000000077
:1001F000D097000808B5034B1BB103490348AFF380
:10020000008008BD0000000078000020D0970008A2
:1002100053B94AB9002908BF00281CBF4FF0FF316D
:100220004FF0FF3000F072B9ADF1080C6DE904CE6B
:1002300000F006F8DDF804E0DDE9022304B07047C1
:100240002DE9F047089E04468846002B4BD18A4290
:10025000154667D9B2FA82F24AB1C2F1200701FA13
:1002600002F320FA07F7954047EA030894404FEA63
:10027000154E230CB8FBFEF71FFA85FC0EFB178802
:1002800043EA084307FB0CF1994209D9EB1807F13F
:10029000FF3080F01B81994240F21881023F2B44CD
:1002A0005B1AA4B2B3FBFEF00EFB103344EA034426
:1002B00000FB0CFCA44509D92C1900F1FF3380F098
:1002C0000781A44540F2048102382C4440EA0740EB
:1002D000A4EB0C0400271EB1D4400023C6E9004360
:1002E0003946BDE8F0878B4209D9002E00F0EB803B
:1002F0000027C6E9000138463946BDE8F087B3FA61
:1003000083F7002F47D18B4202D3824200F2FA805A
:10031000841A61EB030301209846002EE0D0C6E961
:100320000048DDE702B9FFDEB2FA82F2002A40F0AF
:100330008F80491B4FEA154E1FFA85F80127B1FB44
:10034000FEFC230C0EFB1C1143EA014308FB0CF1DD
:10035000994207D9EB180CF1FF3002D2994200F212
:10036000CD808446591AA3B2B1FBFEF00EFB1014E7
:1003700043EA044408FB00F8A04507D92C1900F112
:10038000FF3302D2A04500F2B6801846A4EB080461
:1003900040EA0C409FE7C7F1200CBB4022FA0CFE5C
:1003A0004EEA030E01FA07F420FA0CF521FA0CF3D9
:1003B0004FEA1E482543B3FBF8F92C0C08FB193310
:1003C0001FFA8EFA44EA034309FB0AF49C4202FA3C
:1003D00007F200FA07F10BD91EEB030309F1FF3016
:1003E00080F087809C4240F28480A9F10209734426
:1003F0001B1BADB2B3FBF8F008FB103345EA034416
:1004000000FB0AFAA24508D91EEB040400F1FF33F1
:100410006BD2A24569D90238744440EA0940A0FB76
:100420000289A4EB0A044C45C2464B4654D351D032
:10043000002E69D0B1EB0A0564EB030404FA0CFC4E
:10044000FD40FC404CEA0505C6E90054002747E79B
:10045000C2F1200320FA03F7954001FA02F021FAD5
:1004600003F34FEA154E3843010CB3FBFEF71FFAB6
:1004700085F80EFB173341EA034107FB08F38B4273
:1004800004FA02F407D9691807F1FF3C2FD28B4216
:100490002DD9023F2944CB1A81B2B3FBFEF00EFBEB
:1004A000103341EA034100FB08F38B4207D9691876
:1004B00000F1FF3C17D28B4215D902382944C91AE2
:1004C00040EA07473BE73746304609E70746E7E695
:1004D0001846FBE64145ABD2B8EB020A69EB0E02C7
:1004E00001381346A4E76046E9E7184695E76746F2
:1004F000D1E781467CE702382C4447E7ACF1020C97
:100500002B442FE7384608E73746E9E6704700BF37
:1005100001F0FF01102A2BDB10F0070F08D010F8B4
:10052000013B013A8B422DD010F0070F42B3F6D1B8
:10053000F0B441EA012141EA014122F007047FF0D1
:1005400000070023F0E80256083C85EA010586EA28
:10055000010685FA47F5A3FA87F586FA47F6A5FA64
:1005600087F68EB9EED1F0BC01F0FF0102F0070270
:1005700032B110F8013B013A83EA010313B1F8D11B
:100580000020704701387047002D06BF35460338FC
:10059000073815F0010F07D1013015F4807F02BF35
:1005A000013015F4C03F0130F0BC0138704700BF86
:1005B00080B500AF032000F07EFD002007F040FF73
:1005C00007F0E2F80023184680BD000080B400AFB9
:1005D000064B1B781A46064B1B681344044A1360EB
:1005E00000BFBD465DF8047B704700BF08000020D7
:1005F0004C02002080B400AF034B1B681846BD4678
:100600005DF8047B704700BF4C02002080B584B0C9
:1006100000AF78600023FB737B68002B01D10123BE
:1006200031E07B681B6C002B09D1786807F0D0F8AB
:100630007B6800225A647B68002283F83C207B6838
:100640001B6C03F01003002B16D17B681A6C104B47
:10065000134043F002027B681A64786800F07AFB6A
:100660007B6800225A647B681B6C23F0030343F011
:1006700001027B681A6401E00123FB737B6800229E
:1006800083F83C20FB7B18461037BD4680BD00BF79
:10069000FDEEFFFF80B485B000AF78600023FB6003
:1006A0007B6893F83C30012B01D10223A8E07B68E2
:1006B000012283F83C207B681B689B6803F00103E0
:1006C000012B18D07B681B689A687B681B6842F016
:1006D00001029A604D4B1B684D4AA2FB03239A0C02
:1006E00013465B001344FB6002E0FB68013BFB60C8
:1006F000FB68002BF9D17B681B689B6803F0010342
:10070000012B7CD17B681A6C424B134043F48072FE
:100710007B681A647B681B685B6803F48063002B4A
:1007200007D07B681B6C23F4405343F480527B68F2
:100730001A647B681B6C03F48053B3F5805F06D1A9
:100740007B685B6C23F006027B685A6402E07B687E
:1007500000225A647B68002283F83C207B681B6877
:100760006FF022021A607B681B6859687B681A6800
:10077000294B0B435360294B5B6803F01F03002B8D
:100780000FD17B681B689B6803F04053002B36D168
:100790007B681B689A687B681B6842F080429A609D
:1007A0002DE07B681B681E4A93420ED17B681B6854
:1007B0009B6803F04053002B07D17B681B689A6845
:1007C0007B681B6842F080429A60144B5B6803F0C0
:1007D0001003002B13D17B681B68124A93420ED181
:1007E0007B681B689B6803F04053002B07D17B6834
:1007F0001B689A687B681B6842F080429A600023FD
:1008000018461437BD465DF8047B70470C00002085
:1008100083DE1B43FEF8FFFF20000004002301409D
:10082000002001400022014080B584B000AF786014
:100830000023FB600023BB607B681B681B6803F020
:100840000203022B0CBF01230023DBB2FB607B6899
:100850001B685B6803F02003202B0CBF01230023DF
:10086000DBB2BB60FB68002B49D0BB68002B46D0D5
:100870007B681B6C03F01003002B05D17B681B6C9D
:1008800043F400727B681A647B681B689B6803F002
:100890004053002B2BD17B689B69002B27D17B68B1
:1008A0001B68DB6A03F47003002B06D07B681B68AF
:1008B0009B6803F48063002B19D17B681B685A681E
:1008C0007B681B6822F020025A607B681B6C23F453
:1008D00080727B681A647B681B6C03F48053002B66
:1008E00005D17B681B6C43F001027B681A64786851
:1008F00005F03EFD7B681B686FF012021A607B6892
:100900001B681B6803F00403042B0CBF01230023A6
:10091000DBB2FB607B681B685B6803F08003802BA5
:100920000CBF01230023DBB2BB60FB68002B57D058
:10093000BB68002B54D07B681B6C03F01003002BAA
:1009400005D17B681B6C43F400527B681A647B689A
:100950001B689B6803F44013002B39D17B681B682C
:100960009B6B03F44013002B06D07B681B689B68CD
:1009700003F48063002B2BD17B681B685B6803F456
:100980008063002B24D17B681B689B6803F0405375
:10099000002B1DD17B689B69002B19D17B681B68DC
:1009A0005A687B681B6822F080025A607B681B6C67
:1009B00023F480527B681A647B681B6C03F4807399
:1009C000002B05D17B681B6C43F001027B681A6425
:1009D000786800F0B9FA7B681B686FF00C021A6047
:1009E0007B681B681B6803F00103012B0CBF01230C
:1009F0000023DBB2FB607B681B685B6803F040038D
:100A0000402B0CBF01230023DBB2BB60FB68002B33
:100A100017D0BB68002B14D07B681B681B6803F0E1
:100A20000103012B0DD17B681B6C43F480327B6882
:100A30001A64786800F046F87B681B686FF0010262
:100A40001A607B681B681B6803F02003202B0CBF17
:100A500001230023DBB2FB607B681B685B6803F04B
:100A60008063B3F1806F0CBF01230023DBB2BB6056
:100A7000FB68002B15D0BB68002B12D07B685B6C29
:100A800043F002027B685A647B681B686FF02002A7
:100A90001A60786800F020F87B681B686FF020020D
:100AA0001A6000BF1037BD4680BD80B483B000AF70
:100AB00078607B681B68DB6C18460C37BD465DF8B8
:100AC000047B704780B483B000AF786000BF0C3700
:100AD000BD465DF8047B704780B483B000AF78609A
:100AE00000BF0C37BD465DF8047B704780B485B00D
:100AF00000AF786039600023FB607B6893F83C307E
:100B0000012B01D1022315E17B68012283F83C20EF
:100B10003B681B68092B35D97B681B68D9683B6823
:100B20001B689BB21A4613465B0013441E3B072208
:100B300002FA03F3DA437B681B680A40DA603B6819
:100B40001B687F4A93420AD17B681B68D9683B685F
:100B50009B681A067B681B680A43DA6035E07B688D
:100B60001B68D9683B689A683B681B689BB218464B
:100B700003465B0003441E3B9A407B681B680A43A4
:100B8000DA6022E07B681B6819693B681B689BB2CE
:100B90001A4613465B001344072202FA03F3DA43B2
:100BA0007B681B680A401A617B681B6819693B688F
:100BB0009A683B681B689BB2184603465B00034477
:100BC0009A407B681B680A431A613B685B68062B86
:100BD00024D87B681B68596B3B685A6813469B0096
:100BE0001344053B1F2202FA03F3DA437B681B68B8
:100BF0000A405A637B681B68596B3B681B689BB251
:100C000018463B685A6813469B001344053B00FA9C
:100C100003F27B681B680A435A634CE03B685B68DD
:100C20000C2B24D87B681B68196B3B685A681346E9
:100C30009B001344233B1F2202FA03F3DA437B6831
:100C40001B680A401A637B681B68196B3B681B684A
:100C50009BB218463B685A6813469B001344233BDB
:100C600000FA03F27B681B680A431A6323E07B687F
:100C70001B68D96A3B685A6813469B001344413B82
:100C80001F2202FA03F3DA437B681B680A40DA6228
:100C90007B681B68D96A3B681B689BB218463B6837
:100CA0005A6813469B001344413B00FA03F27B68E9
:100CB0001B680A43DA627B681B68224A934209D1A7
:100CC0003B681B68122B05D11F4B5B681E4A43F41F
:100CD000800353607B681B681A4A934225D13B68A6
:100CE0001B68174A934203D03B681B68112B1CD129
:100CF000154B5B68144A43F4000353603B681B6860
:100D00000F4A934211D1114B1B68114AA2FB0323D6
:100D10009A0C13469B0013445B00FB6002E0FB68E7
:100D2000013BFB60FB68002BF9D17B68002283F854
:100D30003C20002318461437BD465DF8047B7047FD
:100D40001200001000200140002301400C00002090
:100D500083DE1B4380B483B000AF7860784B5B6860
:100D6000774A23F440335360754B5A687B685B685D
:100D7000734913434B607B681B685A687B681B6828
:100D800022F480725A607B681B6859687B681B6913
:100D90001A027B681B680A435A607B681B685A68A2
:100DA0007B681B6822F040725A607B681B68596838
:100DB0007B689A687B681B680A435A607B681B687B
:100DC0009A687B681B6822F400629A607B681B68E3
:100DD00099687B68DA687B681B680A439A607B685D
:100DE0009B6A584A934222D07B681B689A687B684A
:100DF0001B6822F070629A607B681B6899687B6848
:100E00009A6A7B681B680A439A607B681B689A68C9
:100E10007B681B6822F040529A607B681B68996867
:100E20007B68DA6A7B681B680A439A600FE07B681C
:100E30001B689A687B681B6822F070629A607B6806
:100E40001B689A687B681B6822F040529A607B6836
:100E50001B689A687B681B6822F002029A607B68B4
:100E60001B6899687B689B695A007B681B680A430A
:100E70009A607B6893F82030002B1BD07B681B683E
:100E80005A687B681B6842F400625A607B681B6882
:100E90005A687B681B6822F460425A607B681B6852
:100EA00059687B685B6A013B5A037B681B680A438D
:100EB0005A6007E07B681B685A687B681B6822F4ED
:100EC00000625A607B681B68DA6A7B681B6822F4E0
:100ED0007002DA627B681B68D96A7B68DB69013B58
:100EE0001A057B681B680A43DA627B681B689A688C
:100EF0007B681B6822F400729A607B681B689968A3
:100F00007B6893F830305A027B681B680A439A600A
:100F10007B681B689A687B681B6822F480629A6011
:100F20007B681B6899687B685B699A027B681B68B1
:100F30000A439A6000BF0C37BD465DF8047B7047DA
:100F4000002301400100000F80B483B000AF78603F
:100F500000BF0C37BD465DF8047B704780B485B098
:100F600000AF78607B6803F00703FB600B4BDB6826
:100F7000BB60BA684FF6FF031340BB60FB681A0200
:100F8000BB681A43064B1343BB60044ABB68D3607B
:100F900000BF1437BD465DF8047B704700ED00E0EC
:100FA0000000FA0580B400AF044BDB681B0A03F0B5
:100FB00007031846BD465DF8047B704700ED00E06E
:100FC00080B483B000AF0346FB7197F90730002B64
:100FD0000BDBFB7903F01F02074997F907305B0928
:100FE000012000FA02F241F8232000BF0C37BD4671
:100FF0005DF8047B704700BF00E100E080B483B07F
:1010000000AF03463960FB7197F90730002B0ADB0C
:101010003B68DAB20C4997F907301201D2B20B449F
:1010200083F800230AE03B68DAB20849FB7903F051
:101030000F03043B1201D2B20B441A7600BF0C37E7
:10104000BD465DF8047B704700E100E000ED00E084
:1010500080B489B000AFF860B9607A60FB6803F0D3
:101060000703FB61FB69C3F10703042B28BF0423BB
:10107000BB61FB690433062B02D9FB69033B00E02B
:1010800000237B614FF0FF32BB6902FA03F3DA43BE
:10109000BB681A407B699A404FF0FF317B6901FAC7
:1010A00003F3D9437B680B40134318462437BD46EE
:1010B0005DF8047B704780B582B000AF78607868D7
:1010C000FFF74CFF00BF0837BD4680BD80B586B036
:1010D00000AF0346B9607A60FB7300237B61FFF7C2
:1010E00061FF78617A68B9687869FFF7B1FF0246F5
:1010F00097F90F3011461846FFF780FF00BF1837E9
:10110000BD4680BD80B582B000AF0346FB7197F944
:1011100007301846FFF754FF00BF0837BD4680BDB3
:1011200080B582B000AF78607B68002B01D10123CD
:1011300054E07B685B7FDBB2002B05D17B6800222B
:101140001A77786806F0A6FB7B6802225A777B68DC
:101150001B79002B0CD17B681B68224A5A617B6883
:101160001B689A687B681B6822F018029A600CE082
:101170007B6899687B68DB681A46786800F034F809
:101180000346002B01D0012328E07B685B79002B0C
:1011900005D17B681B684FF0FF321A6104E07B6861
:1011A0001B687A6812691A617B681B689B6823F068
:1011B00060017B685A697B681B680A439A607B6898
:1011C0001B689B6823F080017B689A697B681B68B9
:1011D0000A439A607B6801225A7700231846083731
:1011E000BD4680BDB71DC10480B487B000AFF860B4
:1011F000B9607A600023FB751F233B6100BF3B6928
:101200005A1E3A61002B09D03B6903F01F03BA68EC
:1012100022FA03F303F00103002BF0D07B68182BB4
:1012200046D801A252F823F0B7120008B112000804
:10123000B1120008B1120008B1120008B112000882
:10124000B1120008B1120008A5120008B11200087E
:10125000B1120008B1120008B1120008B112000862
:10126000B1120008B112000899120008B11200086A
:10127000B1120008B1120008B1120008B112000842
:10128000B1120008B11200088D1200083B69062B4C
:1012900013D90123FB7510E03B69072B0FD90123FC
:1012A000FB750CE03B690F2B0BD90123FB7508E0A4
:1012B0000123FB7506E000BF04E000BF02E000BFB1
:1012C00000E000BFFB7D002B0DD1FB681B68BA68F6
:1012D0005A61FB681B689B6823F01801FB681B6858
:1012E0007A680A439A60FB7D18461C37BD465DF854
:1012F000047B704780B582B000AF78607B68002BBC
:1013000001D1012362E07B6893F83530DBB2002B1A
:1013100002D1786806F0DEFA7B68022283F8352075
:101320007B681B6819687B681A682A4B0B4013603E
:101330007B681B6819687B685A687B685B691A431D
:101340007B68DB681A437B681B691A437B689B6870
:101350001A437B689B691A437B681B6A1A437B6844
:101360005B6A1A437B689B6A1A437B68DB6A1A4391
:101370007B681B6B1A437B681B680A431A607B6897
:101380005B68102B12D17B681B7F1A467B685B7FE2
:101390001B021A437B689B7F1B0442EA03017B68A4
:1013A000DB7F1A067B681B680A439A617B681B68AF
:1013B000DA687B681B6842F01E02DA607B680022F4
:1013C000DA647B68012283F8352000231846083749
:1013D000BD4680BD07F0E0FF80B582B000AF786009
:1013E0007B68002B01D1012339E07B6893F8393009
:1013F000DBB2002B06D17B68002283F838207868A6
:1014000006F026FB7B68022283F839207B681B6884
:101410001B6823F440317B685A687B681B680A4369
:101420001A607B681B685B6B23F007017B689A6816
:101430007B681B680A435A637B681B681A6C0A4BFB
:1014400013407A68D1687A6812680B4313647B682A
:101450000022DA637B68012283F8392000231846D2
:101460000837BD4680BD00BF00C0FFFF80B584B017
:1014700000AF78607B681B685B68FB607B681B68FB
:101480001B68BB60FB6803F00103002B26D0BB6820
:1014900003F48073002B21D07B681B681A687B687B
:1014A0001B6822F480721A607B68DB6B43F00102D8
:1014B0007B68DA637B681B6801229A607B68042280
:1014C00083F839207B68002283F838207B685B69C9
:1014D000002B03D07B685B6978689847FB6803F052
:1014E0002003002B26D0BB6803F40053002B21D02F
:1014F0007B681B681A687B681B6822F400521A60BC
:101500007B681B6820229A607B68DB6B43F00202D9
:101510007B68DA637B68042283F839207B680022C9
:1015200083F838207B685B69002B03D07B685B699C
:1015300078689847FB6803F00803002B26D0BB6847
:1015400003F40063002B21D07B681B681A687B685A
:101550001B6822F400621A607B681B6808229A608C
:101560007B68DB6B43F004027B68DA637B680422F0
:1015700083F839207B68002283F838207B685B6918
:10158000002B03D07B685B6978689847FB6803F0A1
:101590000403002B13D0BB6803F48063002B0ED030
:1015A0007B681B681A687B681B6822F480621A607B
:1015B0007B681B6804229A60786800F053F8FB6827
:1015C00003F00203002B24D0BB6803F40073002B4C
:1015D0001FD07B681B681A687B681B6822F4007246
:1015E0001A607B681B6802229A607B68DA6B7B68F2
:1015F000DA637B68012283F839207B68002283F854
:1016000038207B681B69002B03D07B681B697868D6
:101610009847FB6803F01003002B1FD0BB6803F44E
:101620008053002B1AD07B681B681A687B681B6884
:1016300022F480521A607B681B6810229A607B68D3
:10164000DA6B7B68DA637B68012283F839207B6878
:10165000002283F83820786800F00EF800BF1037B9
:10166000BD4680BD80B483B000AF786000BF0C374A
:10167000BD465DF8047B704780B483B000AF7860EE
:1016800000BF0C37BD465DF8047B704780B487B05F
:1016900000AF786039607B685B68B3F5403F7B687A
:1016A00093F83830012B01D1022379E07B680122C5
:1016B00083F838207B68022283F839203B681B01BD
:1016C00018337A6813443B613B695A683B699B68ED
:1016D0001B0413437B61354BFB603B695B680A2B42
:1016E00003D03B695B68092B07D13B69DB6803F0DA
:1016F0007F437A6913437B6105E03B69DB681B0626
:101700007A6913437B613B68002B20D17B681B689F
:101710005A6AFB68DB4302EA03017B681B687A694B
:101720000A435A627B681B683A6912689A613B698E
:101730005B680A2B03D03B695B68092B27D13B69A7
:10174000DA687B681B6822F07F429A621FE07B6840
:101750001B68DA69FB68DB4302EA03017B681B68EC
:101760007A690A43DA617B681B683A6912681A6110
:101770003B695B680A2B03D03B695B68092B06D188
:101780003B69DA687B681B6822F07F421A627B68DB
:10179000012283F839207B68002283F83820002357
:1017A00018461C37BD465DF8047B70470F0003FFE9
:1017B00080B489B000AF786039600023FB610023FA
:1017C0007B6100233B610023BB610023FB6175E16A
:1017D0000122FB6902FA03F37B613B681B687A69AB
:1017E00013403B613A697B699A4240F064813B68EF
:1017F0005B68022B03D03B685B68122B23D1FB692B
:10180000DA087B68083253F82230BB61FB6903F0C9
:1018100007039B000F2202FA03F3DB43BA6913406C
:10182000BB613B681A69FB6903F007039B0002FA7E
:1018300003F3BA691343BB61FB69DA087B680832BA
:10184000B96943F822107B681B68BB61FB695B00C8
:10185000032202FA03F3DB43BA691340BB613B681E
:101860005B6803F00302FB695B0002FA03F3BA69E9
:101870001343BB617B68BA691A603B685B68012BE4
:101880000BD03B685B68022B07D03B685B68112B71
:1018900003D03B685B68122B30D17B689B68BB61CF
:1018A000FB695B00032202FA03F3DB43BA691340CE
:1018B000BB613B68DA68FB695B0002FA03F3BA6953
:1018C0001343BB617B68BA699A607B685B68BB61E4
:1018D0000122FB6902FA03F3DB43BA691340BB61DF
:1018E0003B685B681B0903F00102FB6902FA03F322
:1018F000BA691343BB617B68BA695A607B68DB686D
:10190000BB61FB695B00032202FA03F3DB43BA69A4
:101910001340BB613B689A68FB695B0002FA03F302
:10192000BA691343BB617B68BA69DA603B685B687C
:1019300003F08053002B00F0BE80654B5B6C644A63
:1019400043F480435364624B5B6C03F48043FB605D
:10195000FB68604AFB699B08023352F82330BB6185
:10196000FB6903F003039B000F2202FA03F3DB433E
:10197000BA691340BB617B68574A934237D07B6892
:10198000564A934231D07B68554A93422BD07B68AC
:10199000544A934225D07B68534A93421FD07B68B8
:1019A000524A934219D07B68514A934213D07B68C4
:1019B000504A93420DD07B684F4A934207D07B68D0
:1019C0004E4A934201D1092312E00A2310E0082372
:1019D0000EE007230CE006230AE0052308E00423B9
:1019E00006E0032304E0022302E0012300E00023D9
:1019F000FA6902F0030292009340BA691343BB6193
:101A00003449FB699B080233BA6941F823203C4BF7
:101A10001B68BB613B69DB43BA691340BB613B6830
:101A20005B6803F48033002B03D0BA693B6913432E
:101A3000BB61334ABB691360314B5B68BB613B6977
:101A4000DB43BA691340BB613B685B6803F4003356
:101A5000002B03D0BA693B691343BB61284ABB69B9
:101A60005360274B9B68BB613B69DB43BA691340FA
:101A7000BB613B685B6803F48013002B03D0BA6939
:101A80003B691343BB611E4ABB6993601C4BDB6817
:101A9000BB613B69DB43BA691340BB613B685B6870
:101AA00003F40013002B03D0BA693B691343BB61F5
:101AB000134ABB69D360FB690133FB61FB690F2BE0
:101AC0007FF686AE00BF2437BD465DF8047B7047C5
:101AD000003802400038014000000240000402408B
:101AE00000080240000C02400010024000140240B6
:101AF00000180240001C0240002002400024024066
:101B0000003C014080B483B000AF78600B467B801E
:101B100013467B707B78002B03D07A887B689A61B0
:101B200003E07B881A047B689A6100BF0C37BD46CE
:101B30005DF8047B7047000080B582B000AF78602C
:101B40007B68002B01D101237FE07B6893F8413053
:101B5000DBB2002B06D17B68002283F84020786836
:101B600005F09CFF7B68242283F841207B681B687A
:101B70001A687B681B6822F001021A607B685A6849
:101B80007B681B6822F070621A617B681B689A6828
:101B90007B681B6822F400429A607B68DB68012B3B
:101BA00007D17B689A687B681B6842F400429A60A0
:101BB00006E07B689A687B681B6842F404429A607E
:101BC0007B68DB68022B04D17B681B684FF40062E2
:101BD0005A607B681B6859687B681A681D4B0B4309
:101BE00053607B681B68DA687B681B6822F40042DC
:101BF000DA607B681A697B685B6942EA03017B688B
:101C00009B691A027B681B680A43DA607B68D969A2
:101C10007B681A6A7B681B680A431A607B681B68CA
:101C20001A687B681B6842F001021A607B68002218
:101C30005A647B68202283F841207B6800221A6363
:101C40007B68002283F84220002318460837BD46EF
:101C500080BD00BF0080000280B483B000AF786018
:101C600039607B6893F84130DBB2202B38D17B6838
:101C700093F84030012B01D1022332E07B6801222E
:101C800083F840207B68242283F841207B681B680E
:101C90001A687B681B6822F001021A607B681B6867
:101CA0001A687B681B6822F480521A607B681B6884
:101CB00019687B681B683A680A431A607B681B686E
:101CC0001A687B681B6842F001021A607B68202258
:101CD00083F841207B68002283F84020002300E045
:101CE000022318460C37BD465DF8047B704780B46C
:101CF00085B000AF786039607B6893F84130DBB223
:101D0000202B39D17B6893F84030012B01D102237D
:101D100033E07B68012283F840207B68242283F82B
:101D200041207B681B681A687B681B6822F00102EF
:101D30001A607B681B681B68FB60FB6823F4706398
:101D4000FB603B681B02FA681343FB607B681B68FF
:101D5000FA681A607B681B681A687B681B6842F027
:101D600001021A607B68202283F841207B680022F0
:101D700083F84020002300E0022318461437BD46B4
:101D80005DF8047B7047000080B584B000AF7860D8
:101D90007B68002B01D10123BFE07B6893F8A13061
:101DA000DBB2002B06D17B68002283F8A020786884
:101DB00005F0ECFE7B68022283F8A1207B681B689B
:101DC0009A697B681B6822F070429A617B681B6885
:101DD00099697B685A687B689B681A437B68DB68F3
:101DE0001A437B681B691A437B681B680A439A6124
:101DF0007B681B6899687B681A684A4B0B40936044
:101E00007B685B691B04FB607B681B6899687B6867
:101E10009A69FB681A437B681B680A439A607B686F
:101E20001B68D9687B681A683E4B0B40D3607B689F
:101E3000DB691B04FB607B681B68D9687B681A6AD6
:101E4000FB681A437B681B680A43DA607B681B687F
:101E500019697B681A68334B0B4013617B685B6AB6
:101E60001B04FB607B681B6819697B689A6AFB68C6
:101E70001A437B681B680A431A617B681B685969AF
:101E80007B681A68274B0B4053617B68DB6A1B0435
:101E9000FB607B681B6859697B681A6BFB681A4397
:101EA0007B681B680A435A617B6893F835301B02D4
:101EB000FB607B6893F836301B04BB607B681B6853
:101EC000DA6A7B681B6802F07F42DA627B681B6813
:101ED000D96ABA68FB6813437A6892F834201A43C7
:101EE0007B681B680A43DA627B681B685A6B7B68F5
:101EF0001B6842F006025A637B681B689A697B681C
:101F00001B6842F001029A617B680022C3F8A4209A
:101F10007B68012283F8A120002318461037BD46B4
:101F200080BD00BF00F800F080B584B000AF7860DD
:101F30007B681B689B6BFB607B681B685B6BBB6093
:101F4000FB6803F00403002B23D0BB6803F00403F9
:101F5000002B1ED07B681B685A6B7B681B6822F0C5
:101F600004025A637B681B680422DA637B68D3F837
:101F7000A43043F001027B68C3F8A4207B680422EC
:101F800083F8A1207B68002283F8A020786800F005
:101F90006FF8FB6803F00203002B23D0BB6803F04B
:101FA0000203002B1ED07B681B685A6B7B681B6882
:101FB00022F002025A637B681B680222DA637B68A4
:101FC000D3F8A43043F002027B68C3F8A4207B68F6
:101FD000042283F8A1207B68002283F8A02078687F
:101FE00000F046F8FB6803F00103002B1BD0BB6830
:101FF00003F00103002B16D07B681B685A6B7B68CB
:102000001B6822F001025A637B681B680122DA63B5
:102010007B68012283F8A1207B68002283F8A0203E
:10202000786800F02FF8FB6803F00803002B1BD042
:10203000BB6803F00803002B16D07B681B685A6B43
:102040007B681B6822F008025A637B681B680822C1
:10205000DA637B68012283F8A1207B68002283F881
:10206000A020786800F018F800BF1037BD4680BD8A
:1020700080B483B000AF786000BF0C37BD465DF818
:10208000047B704780B483B000AF786000BF0C372A
:10209000BD465DF8047B704780B483B000AF7860C4
:1020A00000BF0C37BD465DF8047B7047B0B584B007
:1020B00000AFF860B9607A60FB6893F8A030012B3C
:1020C00001D102232CE0FB68012283F8A020FB68E9
:1020D000022283F8A120FA687B68342101FB03F314
:1020E000134403F13802BB6814461D460FCD0FC4DC
:1020F0000FCD0FC40FCD0FC42B6823607A68B96869
:10210000F86800F011F8FB681B6801225A62FB684E
:10211000012283F8A120FB68002283F8A02000237D
:1021200018461037BD46B0BD80B489B000AFF86026
:10213000B9607A60BB685A68FB681B68DB681B0C77
:10214000C3F30B0313441B04FB61FB681B681A46B3
:102150007B68DB01134484335B68FA6812681146BC
:102160007A68D2010A44843203F470435360BB6836
:102170001A68FB681B68DB681B0CC3F30B03134472
:102180005A1CFB681B6819467B68DB010B448433CF
:102190001946FB6913434B60BB68DA68FB681B6830
:1021A000DB68C3F30A0313441B04FB61FB681B6871
:1021B0001A467B68DB01134484339B68FA68126813
:1021C00011467A68D2010A44843203F47043936062
:1021D000BB689A68FB681B68DB68C3F30A03134497
:1021E0005A1CFB681B6819467B68DB010B4484336F
:1021F0001946FB6913438B60FB681B681A467B68B2
:10220000DB01134484331B69FA68126811467A684B
:10221000D2010A44843223F007031361FB681B6870
:102220001A467B68DB01134484331A46BB681B697A
:102230001361BB6893F831301B02FB61BB6893F8F4
:1022400032301B04BB61BB689B691B067B61FB686A
:102250001B681A467B68DB01134484339B69FB6867
:102260001B681A467B68DB01134484331A4600233B
:102270009361BB6893F830301A46FB691A43BB6917
:102280001A43FB681B6819467B68DB010B448433E7
:1022900019467B6913438B61FB681B681A467B6890
:1022A000DB01134484335B69FA68126811467A686B
:1022B000D2010A44843223F0FF035361FB681B6898
:1022C0001A467B68DB01134484331A46BB685B699A
:1022D0005361FB681B681A467B68DB011344843337
:1022E000DA69FB681B6819467B68DB010B448433A1
:1022F0001946584B1340CB61BB68DA69BB681B6A4F
:10230000F968096808467968C901014484311343B2
:10231000CB61FB681B681A467B68DB01134484337E
:102320009B6AFB681B681A467B68DB011344843395
:102330001A4600239362FB681B681A467B68DB0120
:10234000134484331A46BB685B6A9362BB681B699B
:10235000002B02D10423FB611BE0BB681B69012B2E
:1023600002D10323FB6114E0BB681B69042B0BD073
:10237000BB681B69022B07D0BB681B69032B03D00A
:10238000BB681B69072B02D10223FB6101E001231B
:10239000FB61FB681B681A467B68DB0113448433CE
:1023A000DB6AFA68126811467A68D2010A448432FC
:1023B00003F0E023D362BB689B6AFA6902FB03F374
:1023C0001A04BB685968BB681B68CB1AF96901FB22
:1023D00003F30333F968096808467968C9010144C1
:1023E00084311343CB62FB681B681A467B68DB01B0
:1023F000134484331A6BFB681B6819467B68DB0146
:102400000B4484331946144B13400B63FB681B6861
:102410001A467B68DB01134484331A46BB68DB6AC7
:102420001363FB681B681A467B68DB011344843323
:102430001B68FA68126811467A68D2010A4484322D
:1024400043F00103136000BF2437BD465DF8047BF1
:10245000704700BFF8F8FFFF00F8FFFF80B400AF3F
:10246000054B1B68044A43F48073136000BFBD46EC
:102470005DF8047B704700BF0070004080B586B0F7
:1024800002AF78600123FB73FEF7B4F8B8607B6895
:10249000002B01D1012373E07B6893F84030DBB25D
:1024A000012B01D102236BE07B68012283F84020DD
:1024B0007B6893F84130DBB2002B0BD17B680022A4
:1024C00083F84020786805F029FC41F2883178686B
:1024D00000F05EF87B681B681B6823F4F8517B688A
:1024E0009B68013B1A027B681B680A431A607B6881
:1024F0009B6C0093BB6800222021786800F056F89E
:102500000346FB73FB7B002B35D17B681B681A6885
:102510001D4B13407A68526811067A68D2681143DD
:102520007A68D26911437A68126A11437A6812682C
:102530000B4313607B681B685A68144B13407A681E
:10254000126911047A68526911437A6892691143D9
:102550007A6812680B4353607B681B681A687B6853
:102560001B6842F001021A607B6800225A647B6893
:10257000012283F841207B68002283F84020FB7B06
:1025800018461037BD4680BD2FFFFF00FEF8E0FF64
:1025900080B483B000AF786039607B683A689A6431
:1025A00000BF0C37BD465DF8047B704780B584B032
:1025B00000AFF860B9603B601346FB711AE0BB697D
:1025C000B3F1FF3F16D0BB69002B07D0FEF712F81E
:1025D00002463B68D31ABA699A420BD2FB680422BE
:1025E00083F84120FB685B6C43F00102FB685A648E
:1025F00001230EE0FB681B689A68BB681340002B40
:1026000014BF01230023DBB21A46FB799A42D6D1CC
:10261000002318461037BD4680BD000080B586B047
:1026200000AF78600023FB757B68002B01D101238C
:102630005CE27B681B6803F00103002B00F08780DD
:10264000964B9B6803F00C03042B0CD0934B9B68B8
:1026500003F00C03082B12D1904B5B6803F480034A
:10266000B3F5800F0BD18D4B1B6803F40033002BA7
:102670006CD07B685B68002B68D1012336E27B68F5
:102680005B68B3F5803F06D1844B1B68834A43F4F3
:10269000803313602EE07B685B68002B0CD17F4B8E
:1026A0001B687E4A23F4803313607C4B1B687B4A93
:1026B00023F4802313601DE07B685B68B3F5A02FD3
:1026C0000CD1764B1B68754A43F480231360734B1F
:1026D0001B68724A43F4803313600BE06F4B1B6836
:1026E0006E4A23F4803313606C4B1B686B4A23F4EF
:1026F000802313607B685B68002B13D0FDF77AFFA3
:10270000386108E0FDF776FF02463B69D31A642B77
:1027100001D90323EAE1614B1B6803F40033002B6A
:10272000F0D014E0FDF766FF386108E0FDF762FFC6
:1027300002463B69D31A642B01D90323D6E1574BD8
:102740001B6803F40033002BF0D100E000BF7B686E
:102750001B6803F00203002B69D0504B9B6803F009
:102760000C03002B0BD04D4B9B6803F00C03082B84
:102770001CD14A4B5B6803F48003002B16D1474BF6
:102780001B6803F00203002B05D07B68DB68012B7C
:1027900001D00123AAE1414B1B6823F0F8027B68BA
:1027A0001B69DB003D4913430B6040E07B68DB683D
:1027B000002B23D0394B1B68384A43F001031360C8
:1027C000FDF718FF386108E0FDF714FF02463B698A
:1027D000D31A022B01D9032388E1304B1B6803F085
:1027E0000203002BF0D02D4B1B6823F0F8027B680E
:1027F0001B69DB00294913430B6018E0274B1B685A
:10280000264A23F001031360FDF7F4FE386108E067
:10281000FDF7F0FE02463B69D31A022B01D90323D0
:1028200064E11E4B1B6803F00203002BF0D17B68B0
:102830001B6803F00803002B38D07B685B69002B12
:1028400019D0164B5B6F154A43F001035367FDF730
:10285000D1FE386108E0FDF7CDFE02463B69D31A90
:10286000022B01D9032341E10C4B5B6F03F0020300
:10287000002BF0D01AE0094B5B6F084A23F00103EC
:102880005367FDF7B7FE38610AE0FDF7B3FE024675
:102890003B69D31A022B03D9032327E100380240F6
:1028A000944B5B6F03F00203002BEED17B681B6837
:1028B00003F00403002B00F0A4808E4B1B6C03F08C
:1028C0008053002B0DD18B4B1B6C8A4A43F08053F5
:1028D0001364884B1B6C03F08053FB60FB6801237F
:1028E000FB75854B1B6803F48073002B18D1824B5A
:1028F0001B68814A43F480731360FDF77BFE3861E7
:1029000008E0FDF777FE02463B69D31A642B01D934
:102910000323EBE0784B1B6803F48073002BF0D0AB
:102920007B689B68012B06D1724B1B6F714A43F089
:10293000010313672DE07B689B68002B0CD16D4B66
:102940001B6F6C4A23F0010313676A4B1B6F694AC4
:1029500023F0040313671CE07B689B68052B0CD1F4
:10296000644B1B6F634A43F004031367614B1B6F97
:10297000604A43F0010313670BE05E4B1B6F5D4A37
:1029800023F0010313675B4B1B6F5A4A23F00403C8
:1029900013677B689B68002B15D0FDF72BFE386111
:1029A0000AE0FDF727FE02463B69D31A41F288325E
:1029B000934201D9032399E04E4B1B6F03F00203AE
:1029C000002BEED014E0FDF715FE38610AE0FDF7AC
:1029D00011FE02463B69D31A41F28832934201D973
:1029E000032383E0434B1B6F03F00203002BEED164
:1029F000FB7D012B05D13F4B1B6C3E4A23F08053DE
:102A000013647B689B69002B6FD03A4B9B6803F083
:102A10000C03082B67D07B689B69022B49D1354B8F
:102A20001B68344A23F080731360FDF7E3FD3861BF
:102A300008E0FDF7DFFD02463B69D31A022B01D9FE
:102A4000032353E02B4B1B6803F00073002BF0D1E2
:102A50007B68DA697B681B6A1A437B685B6A9B0147
:102A60001A437B689B6A5B08013B1B041A437B6823
:102A7000DB6A1B0613431F4A43F0005353601D4B90
:102A80001B681C4A43F080731360FDF7B3FD386187
:102A900008E0FDF7AFFD02463B69D31A022B01D9CE
:102AA000032323E0134B1B6803F00073002BF0D0CB
:102AB0001BE0104B1B680F4A23F080731360FDF777
:102AC00099FD386108E0FDF795FD02463B69D31A90
:102AD000022B01D9032309E0064B1B6803F00073A6
:102AE000002BF0D101E0012300E000231846183745
:102AF000BD4680BD003802400070004080B584B003
:102B000000AF786039600023FB607B68002B01D147
:102B10000123CEE0694B1B6803F00F033A689A4229
:102B200010D9664B1B6823F00F0264493B681343BE
:102B30000B60624B1B6803F00F033A689A4201D0A6
:102B40000123B6E07B681B6803F00203002B20D052
:102B50007B681B6803F00403002B05D0584B9B686F
:102B6000574A43F4E05393607B681B6803F0080303
:102B7000002B05D0524B9B68514A43F4604393604D
:102B80004F4B9B6823F0F0027B689B684C491343D2
:102B90008B607B681B6803F00103002B40D07B68CF
:102BA0005B68012B07D1464B1B6803F40033002BF5
:102BB00015D101237DE07B685B68022B07D1404B78
:102BC0001B6803F00073002B09D1012371E03C4B1B
:102BD0001B6803F00203002B01D1012369E0384B8D
:102BE0009B6823F003027B685B68354913438B6065
:102BF000FDF700FDF8600AE0FDF7FCFC0246FB680B
:102C0000D31A41F28832934201D9032351E02C4B6D
:102C10009B6803F00C027B685B689B009A42EBD1D7
:102C2000264B1B6803F00F033A689A4210D2234BDD
:102C30001B6823F00F0221493B6813430B601F4BB5
:102C40001B6803F00F033A689A4201D0012330E079
:102C50007B681B6803F00403002B08D0184B9B68AB
:102C600023F4E0527B68DB68154913438B607B6873
:102C70001B6803F00803002B09D0114B9B6823F459
:102C800060427B681B69DB000D4913438B6000F0D9
:102C90001DF801460A4B9B681B0903F00F03094A04
:102CA000D35C21FA03F3084A1360002005F0C8FB47
:102CB000002318461037BD4680BD00BF003C0240CF
:102CC00000380240E89700080C000020F0B585B0FD
:102CD00000AF00237B600023FB6000233B600023E8
:102CE000BB60504B9B6803F00C03042B07D0082BF0
:102CF00008D0002B40F08D804B4BBB608CE04B4BE1
:102D0000BB6089E0474B5B6803F03F037B60454B4A
:102D10005B6803F48003002B23D0424B5B689B0964
:102D20004FF0000440F2FF114FF0000203EA0105EA
:102D300004EA02063D4A02FB06F1002202FB05F20C
:102D40000A443A49A5FB0101531819467B684FF024
:102D500000041A462346FDF75BFA03460C46FB6067
:102D600049E0304B5B689B094FF0000440F2FF11D3
:102D70004FF0000203EA010504EA02062946324642
:102D80004FF000034FF00004540144EAD1644B01BA
:102D900019462246491B62EB06024FF000034FF032
:102DA0000004940144EA91648B015B1A64EB020411
:102DB0004FF000014FF00002E20042EA5372D900E6
:102DC0000B4614465B1944EB06044FF000014FF02C
:102DD0000002A20242EA935299020B461446184698
:102DE00021467B684FF000041A462346FDF710FA8F
:102DF00003460C46FB600B4B5B681B0C03F00303A4
:102E000001335B003B60FA683B68B2FBF3F3BB60E5
:102E100002E0054BBB6000BFBB6818461437BD46D7
:102E2000F0BD00BF003802400024F40040787D016E
:102E300080B400AF034B1B681846BD465DF8047BA9
:102E4000704700BF0C00002080B500AFFFF7F0FF17
:102E50000146054B9B689B0A03F00703034AD35CBA
:102E600021FA03F3184680BD00380240F8970008A5
:102E700080B500AFFFF7DCFF0146054B9B685B0B9D
:102E800003F00703034AD35C21FA03F3184680BD1D
:102E900000380240F897000880B483B000AF786033
:102EA00039607B680F221A60124B9B6803F00302A3
:102EB0007B685A600F4B9B6803F0F0027B689A6056
:102EC0000C4B9B6803F4E0527B68DA60094B9B680B
:102ED000DB0803F4E0527B681A61074B1B6803F0C0
:102EE0000F023B681A6000BF0C37BD465DF8047BDB
:102EF000704700BF00380240003C024080B588B0F7
:102F000000AF786000237B6100233B610023FB60FE
:102F10000023FB610023BB617B681B6803F0010396
:102F2000002B12D0694B9B68684A23F4000393601E
:102F3000664B9A687B685B6B644913438B607B6864
:102F40005B6B002B01D10123FB617B681B6803F4E1
:102F50000023002B17D05D4BD3F88C3023F44012A4
:102F60007B68DB6B59491343C1F88C307B68DB6BA2
:102F7000B3F5801F01D10123FB617B68DB6B002B64
:102F800001D10123BB617B681B6803F48013002B14
:102F900017D04E4BD3F88C3023F440027B681B6C67
:102FA0004A491343C1F88C307B681B6CB3F5800F22
:102FB00001D10123FB617B681B6C002B01D1012334
:102FC000BB617B681B6803F08073002B01D0012379
:102FD000FB617B681B6803F02003002B00F08B80F3
:102FE0003A4B1B6C394A43F080531364374B1B6CCC
:102FF00003F08053BB60BB68354B1B68344A43F415
:1030000080731360FDF7F6FA786108E0FDF7F2FAD5
:1030100002467B69D31A642B01D9032355E32C4B59
:103020001B6803F48073002BF0D0284B1B6F03F454
:1030300040733B613B69002B35D07B681B6B03F40D
:1030400040733A699A422ED0204B1B6F23F4407391
:103050003B611E4B1B6F1D4A43F4803313671B4BB0
:103060001B6F1A4A23F480331367184A3B691367AE
:10307000164B1B6F03F00103012B14D1FDF7BAFAB5
:1030800078610AE0FDF7B6FA02467B69D31A41F28D
:103090008832934201D9032317E30C4B1B6F03F0D3
:1030A0000203002BEED07B681B6B03F44073B3F577
:1030B000407F11D1054B9B6823F4F8127B68196B94
:1030C000044B0B40014913438B600BE00038024076
:1030D00000700040FFFCFF0FB04B9B68AF4A23F429
:1030E000F8139360AD4B1A6F7B681B6BC3F30B0334
:1030F000AA4913430B677B681B6803F01003002B7E
:1031000010D0A64BD3F88C30A44A23F08073C2F8B9
:103110008C30A24BD3F88C207B689B6B9F49134368
:10312000C1F88C307B681B6803F48043002B0AD005
:103130009A4BD3F8903023F440327B685B6E97490A
:103140001343C1F890307B681B6803F40043002BE5
:103150000AD0924BD3F8903023F440227B689B6EC8
:103160008E491343C1F890307B681B6803F48033A9
:10317000002B0AD0894BD3F8903023F440127B689F
:10318000DB6E86491343C1F890307B681B6803F4FB
:103190000033002B0AD0814BD3F8903023F4400247
:1031A0007B681B6F7D491343C1F890307B681B68B7
:1031B00003F04003002B0AD0784BD3F8903023F073
:1031C00003027B685B6C75491343C1F890307B68E0
:1031D0001B6803F08003002B0AD0704BD3F89030AB
:1031E00023F00C027B689B6C6C491343C1F8903050
:1031F0007B681B6803F48073002B0AD0674BD3F8FD
:10320000903023F030027B68DB6C64491343C1F8D3
:1032100090307B681B6803F40073002B0AD05F4B6F
:10322000D3F8903023F0C0027B681B6D5B491343D9
:10323000C1F890307B681B6803F48063002B0AD0D0
:10324000564BD3F8903023F440727B685B6D534942
:103250001343C1F890307B681B6803F40063002BB4
:103260000AD04E4BD3F8903023F440627B689B6DBC
:103270004A491343C1F890307B681B6803F48053BC
:10328000002B0AD0454BD3F8903023F440527B6892
:10329000DB6D42491343C1F890307B681B6803F42F
:1032A0000053002B0AD03D4BD3F8903023F440421A
:1032B0007B681B6E39491343C1F890307B681B68EB
:1032C00003F48003002B0AD0344BD3F8903023F062
:1032D00080627B689B6F31491343C1F890307B68F3
:1032E0001B6803F40013002B11D02C4BD3F8903043
:1032F00023F000627B68DB6F28491343C1F89030EC
:103300007B68DB6FB3F1006F01D10123BB617B6888
:103310001B6803F00803002B01D00123BB617B680D
:103320001B6803F48023002B0AD01C4BD3F8903089
:1033300023F040727B685B6F18491343C1F89030EB
:103340007B681B6803F40003002B0BD0134BD3F8EE
:10335000903023F080527B68D3F880300F491343BC
:10336000C1F89030FB69012B05D07B681B68B3F175
:10337000007F40F0D880094B1B68084A23F0806327
:103380001360FDF737F978610AE0FDF733F902467B
:103390007B69D31A642B03D9032396E100380240DA
:1033A0006C4B1B6803F00063002BEED17B681B683D
:1033B00003F00103002B21D07B685B6B002B1DD138
:1033C000644BD3F884301B0C03F003033B61614B67
:1033D000D3F884301B0E03F00F03FB607B685B683F
:1033E0009A013B691B041A43FB681B061A437B685E
:1033F0009B681B0757491343C1F884307B681B68DF
:1034000003F40023002B04D07B68DB6BB3F5801F33
:103410000AD07B681B6803F48013002B2ED07B68D6
:103420001B6CB3F5800F29D14A4BD3F884301B0CA9
:1034300003F003033B61474BD3F884301B0F03F0C9
:103440000703FB607B685B689A013B691B041A43B6
:103450007B68DB681B061A43FB681B073D49134367
:10346000C1F884303B4BD3F88C3023F01F027B68CB
:103470005B6A013B37491343C1F88C307B681B689A
:1034800003F08073002B1DD0324BD3F884301B0E19
:1034900003F00F033B612F4BD3F884301B0F03F075
:1034A0000703FB607B685B689A017B681B691B04F0
:1034B0001A433B691B061A43FB681B072549134344
:1034C000C1F884307B681B6803F00073002B11D0B7
:1034D0007B685B689A017B681B691B041A437B68E5
:1034E000DB681B061A437B689B681B07194913435B
:1034F000C1F88430174B1B68164A43F08063136091
:10350000FDF778F8786108E0FDF774F802467B690A
:10351000D31A642B01D90323D7E00E4B1B6803F0A9
:103520000063002BF0D0BB69012B40F0CD80094B2C
:103530001B68084A23F080531360FDF75BF878613D
:103540000AE0FDF757F802467B69D31A642B03D9CA
:103550000323BAE0003802405E4B1B6803F00053BF
:10356000B3F1005FEDD07B681B6803F40023002BF0
:1035700003D07B68DB6B002B09D07B681B6803F4EE
:103580008013002B2ED07B681B6C002B2AD1514B53
:10359000D3F888301B0C03F003033B614D4BD3F889
:1035A00088301B0F03F00703FB607B685B699A019F
:1035B0003B691B041A437B689B691B061A43FB6823
:1035C0001B0744491343C1F88830424BD3F88C3071
:1035D00023F4F8527B689B6A013B1B023D4913436D
:1035E000C1F88C307B681B6803F40013002B22D0D9
:1035F0007B68DB6FB3F1006F1DD1364BD3F8883099
:103600001B0E03F00F033B61324BD3F888301B0FC6
:1036100003F00703FB607B685B699A017B681B6AA8
:103620001B041A433B691B061A43FB681B07294905
:103630001343C1F888307B681B6803F00803002B34
:1036400028D0244BD3F888301B0E03F00F033B61C6
:10365000204BD3F888301B0C03F00303FB607B681E
:103660005B699A01FB681B041A433B691B061A43FA
:103670007B68DB691B0717491343C1F88830154B7A
:10368000D3F88C3023F440327B68DB6A1149134352
:10369000C1F88C300F4B1B680E4A43F08053136007
:1036A000FCF7A8FF786108E0FCF7A4FF02467B69FD
:1036B000D31A642B01D9032307E0064B1B6803F0E0
:1036C0000053B3F1005FEFD1002318462037BD4609
:1036D00080BD00BF0038024080B487B000AF786082
:1036E0000023FB6000237B6100233B610023BB6060
:1036F0007B68B3F5002F40F086808D4BD3F88C307B
:10370000BB60BB6803F44013BB60BB68B3F5801FAC
:103710003ED0B3F5001F73D0002B00D074E0844B73
:103720005B6803F48003002B08D1814B5B6803F0D6
:103730003F03804AB2FBF3F33B6107E07C4B5B68DD
:1037400003F03F037C4AB2FBF3F33B61784BD3F8C1
:1037500088301B0E03F00F03FB60754BD3F88830E5
:103760009B09C3F308033A6902FB03F2FB68B2FB4F
:10377000F3F37B616E4BD3F88C301B0A03F01F030D
:103780000133FB607A69FB68B2FBF3F37B613BE0DA
:10379000674B5B6803F48003002B08D1644B5B68C4
:1037A00003F03F03634AB2FBF3F33B6107E0604B76
:1037B0005B6803F03F03604AB2FBF3F33B615C4B91
:1037C000D3F884301B0E03F00F03FB60584BD3F883
:1037D00084309B09C3F308033A6902FB03F2FB68D8
:1037E000B2FBF3F37B61524BD3F88C3003F01F0331
:1037F0000133FB607A69FB68B2FBF3F37B6103E0A2
:103800004E4B7B6100E000BF7B68B3F5801F40F04A
:103810008680474BD3F88C30BB60BB6803F4400311
:10382000BB60BB68B3F5800F3ED0B3F5000F73D01B
:10383000002B00D074E03E4B5B6803F48003002B48
:1038400008D13B4B5B6803F03F033A4AB2FBF3F30A
:103850003B6107E0364B5B6803F03F03364AB2FB3F
:10386000F3F33B61324BD3F888301B0E03F00F03A8
:10387000FB602F4BD3F888309B09C3F308033A69E8
:1038800002FB03F2FB68B2FBF3F37B61284BD3F836
:103890008C301B0A03F01F030133FB607A69FB685D
:1038A000B2FBF3F37B613BE0214B5B6803F48003E5
:1038B000002B08D11E4B5B6803F03F031D4AB2FB8F
:1038C000F3F33B6107E01A4B5B6803F03F031A4ACE
:1038D000B2FBF3F33B61164BD3F884301B0E03F0BD
:1038E0000F03FB60124BD3F884309B09C3F308032A
:1038F0003A6902FB03F2FB68B2FBF3F37B610C4B0A
:10390000D3F88C3003F01F030133FB607A69FB6846
:10391000B2FBF3F37B6103E0084B7B6100E000BF87
:103920007B6918461C37BD465DF8047B704700BFB5
:10393000003802400024F40040787D010080BB0084
:1039400080B582B000AF78607B68002B01D1012385
:103950006BE07B685B7FDBB2002B05D17B680022CC
:103960001A77786804F06AFA7B6802225A777B68D3
:103970001B68CA225A627B681B6853225A627868A5
:1039800000F000FB0346002B08D07B681B68FF2279
:103990005A627B6804225A77012346E07B681B68E1
:1039A00099687B681A68234B0B4093607B681B689F
:1039B00099687B685A687B681B691A437B685B69F6
:1039C0001A437B681B680A439A607B681B687A68A5
:1039D000D2681A617B681B6819697B689B681A0446
:1039E0007B681B680A431A617B681B68DA687B681E
:1039F0001B6822F08002DA607B681B68DA6C7B68E7
:103A00001B6822F00802DA647B681B68D96C7B684B
:103A10009A697B681B680A43DA647B681B68FF222B
:103A20005A627B6801225A77002318460837BD4640
:103A300080BD00BFBFFF8FFF90B587B000AFF860BB
:103A4000B9607A6000237B61FB681B7F012B01D189
:103A50000223A8E0FB6801221A77FB6802225A774A
:103A60007B68002B26D1FB681B689B6803F0400332
:103A7000002B02D1BB6800221A73BB681B78184662
:103A800000F0ACFA03461C04BB685B78184600F0F3
:103A9000A5FA03461B021C43BB689B78184600F03E
:103AA0009DFA034644EA0302BB681B7B1B041343D5
:103AB0007B6118E0FB681B689B6803F04003002BE8
:103AC00002D1BB6800221A73BB681B781A04BB685A
:103AD0005B781B021343BA6892781A43BB681B7B5E
:103AE0001B0413437B61FB681B68CA225A62FB6894
:103AF0001B6853225A62F86800F044FA0346002B10
:103B00000BD0FB681B68FF225A62FB6804225A77BD
:103B1000FB6800221A77012345E0FB681A6879697F
:103B2000234B0B401360FB681B689A68FB681B689B
:103B300022F480229A60FB681B689968BB681A6946
:103B4000BB685B691A43FB681B680A439A60FB68A1
:103B50001B68DA68FB681B6822F08002DA60FB6889
:103B60001B689B6803F02003002B11D1F86800F05C
:103B7000E1F90346002B0BD0FB681B68FF225A6259
:103B8000FB6804225A77FB6800221A7701230AE0B7
:103B9000FB681B68FF225A62FB6801225A77FB68A8
:103BA00000221A77002318461C37BD4690BD00BF7F
:103BB0007F7F7F0090B587B000AFF860B9607A6012
:103BC00000237B61FB681B7F012B01D1022392E064
:103BD000FB6801221A77FB6802225A777B68002B68
:103BE0000ED1BB685B7803F01003002B08D0BB68D4
:103BF0005B7823F01003DBB20A33DAB2BB685A7089
:103C00007B68002B1CD1BB68DB78184600F0E6F916
:103C100003461C04BB685B78184600F0DFF90346D6
:103C20001B021C43BB689B78184600F0D7F903467B
:103C300044EA0302BB681B785B0313437B610EE01D
:103C4000BB68DB781A04BB685B781B021343BA6855
:103C500092781A43BB681B785B0313437B61FB6854
:103C60001B68CA225A62FB681B6853225A62F868B2
:103C700000F088F90346002B0BD0FB681B68FF227D
:103C80005A62FB6804225A77FB6800221A770123E4
:103C900031E0FB681A687969194B0B405360FB6887
:103CA0001B68DA68FB681B6822F08002DA60FB6838
:103CB0001B689B6803F02003002B11D1F86800F00B
:103CC00039F90346002B0BD0FB681B68FF225A62B0
:103CD000FB6804225A77FB6800221A7701230AE066
:103CE000FB681B68FF225A62FB6801225A77FB6857
:103CF00000221A77002318461C37BD4690BD00BF2E
:103D00003FFFFF0090B589B000AFF860B9607A60FE
:103D10000023BB610023FB6100237B61FB681B7FE9
:103D2000012B01D1022301E1FB6801221A77FB6814
:103D300002225A777B68002B37D1FB681B689B688F
:103D400003F04003002B02D1BB6800221A73BB684A
:103D50001B78184600F042F903461C04BB685B78E8
:103D6000184600F03BF903461B021C43BB689B78D6
:103D7000184600F033F9034644EA0302BB681B7B94
:103D80001B0442EA0304BB6893F82430184600F091
:103D900025F903461B0644EA0302BB681B6A1A4363
:103DA000BB689B691343FB6123E0FB681B689B684E
:103DB00003F04003002B02D1BB6800221A73BB68DA
:103DC0001B781A04BB685B781B021343BA689278AD
:103DD0001A43BB681B7B1B041A43BB6893F824304F
:103DE0001B061A43BB681B6A1A43BB689B691343D3
:103DF000FB61BB685A68BB68DB6913437B61FB6886
:103E00001B68CA225A62FB681B6853225A62BB684D
:103E10009B6AB3F5807F3FD1FB681B689A68FB689B
:103E20001B6822F480729A60FB681B689A68FB68C2
:103E30001B6822F480529A60FCF7DCFBB86113E047
:103E4000FCF7D8FB0246BB69D31AB3F57A7F0BD9CE
:103E5000FB681B68FF225A62FB6803225A77FB68E3
:103E600000221A77032361E0FB681B68DB6803F01C
:103E70000103002BE4D0FB681B68FA69DA61FB6878
:103E80001B687A695A64FB681B689A68FB681B6840
:103E900042F480729A603EE0FB681B689A68FB6897
:103EA0001B6822F400729A60FB681B689A68FB68C2
:103EB0001B6822F400529A60FCF79CFBB86113E087
:103EC000FCF798FB0246BB69D31AB3F57A7F0BD98E
:103ED000FB681B68FF225A62FB6803225A77FB6863
:103EE00000221A77032321E0FB681B68DB6803F0DC
:103EF0000203002BE4D0FB681B68FA691A62FB68B6
:103F00001B687A699A64FB681B689A68FB681B687F
:103F100042F400729A60FB681B68FF225A62FB68D9
:103F200001225A77FB6800221A77002318462437AB
:103F3000BD4690BD80B584B000AF78600023FB60C3
:103F40007B681B68DA687B681B6822F0A002DA6075
:103F5000FCF750FBF86009E0FCF74CFB0246FB68FD
:103F6000D31AB3F57A7F01D9032307E07B681B6876
:103F7000DB6803F02003002BEED000231846103737
:103F8000BD4680BD80B584B000AF78600023FB6083
:103F90007B681B68DB6803F04003002B19D17B684A
:103FA0001B684FF0FF32DA60FCF724FBF86009E091
:103FB000FCF720FB0246FB68D31AB3F57A7F01D9E0
:103FC000032307E07B681B68DB6803F04003002BDA
:103FD000EED0002318461037BD4680BD80B485B0B2
:103FE00000AF0346FB710023FB6005E0FB68013373
:103FF000FB60FB790A3BFB71FB79092BF6D8FB6868
:10400000DBB21B01DAB2FB791343DBB2184614377B
:10401000BD465DF8047B704780B487B000AFF860A0
:10402000B9607A6000237B61FB681B7F012B01D1A3
:1040300002233EE0FB6801221A77FB6802225A77CE
:10404000FB681B689A681E4B13407B617A69BB68EA
:1040500013437B61FB681B68CA225A62FB681B68BA
:1040600053225A62FB681B68DA6CFB681B6822F0FB
:104070000602DA64FB681B68D96CFB681B687A6807
:104080000A43DA64FB681B687A699A60FB681B68FC
:104090009A68FB681B6842F400629A60FB681B68C0
:1040A000FF225A62FB6801225A77FB6800221A77C6
:1040B000002318461C37BD465DF8047B704700BFDF
:1040C000F7F7FFFF80B588B000AF78600023FB6191
:1040D0000023BB6100237B617B68002B01D101239E
:1040E00049E17B6893F87D30DBB2002B06D17B6819
:1040F000002283F87C20786804F038F97B6802227B
:1041000083F87D20786800F04FF97B68DB68012B2D
:1041100007D0012B02D3022B06D008E00023FB615D
:1041200005E01023FB6102E02023FB6100BF7B68F8
:104130009B68032B1DD801A252F823F04D410008C3
:10414000534100085B4100086341000800237B6184
:1041500010E04FF480637B610CE04FF400637B61FF
:1041600008E04FF400637B61FB6943F00103FB61EE
:1041700000E000BF7B681B68814A934204D07B68E3
:104180001B68804A934203D17F4AFB69136002E0B7
:104190007E4AFB6913607B68DB69002B43D00023F8
:1041A0003B617B681B68764A934204D07B681B683E
:1041B000744A934204D14FF40020FFF78DFA38611E
:1041C0007B681B68724A934204D07B681B68714A03
:1041D000934204D14FF48010FFF77EFA38613A69B8
:1041E00013469B0013445B001A467B68DB695B0245
:1041F000B2FBF3F3FB60FB68674AA2FB0323DA0818
:104200007B681A62F968644BA3FB0123DA08134642
:104210009B0013445B00CA1A082A04D97B681B6AF6
:104220005A1C7B681A627B685B68002B03D07B6832
:104230005B68022B09D17B68DB6B012B01D100236A
:1042400001E04FF40073BB6108E07B68DB6B012B7E
:1042500002D14FF4007300E00023BB617B681B6850
:1042600019687B681A684D4B0B4013607B681B68AC
:1042700019687B685A687B681B6B1A437B685B6BA9
:104280001A437B689B6B1A43BB691A437B691A43C9
:104290007B685B6A1A437B681B691A437B685B69AE
:1042A0001A437B681B6A1B051A437B681B680A4319
:1042B0001A607B681B6859687B681A68384B0B402A
:1042C00053607B681B6859687B689A697B689B6A46
:1042D0001A437B68DB6A1A437B681B680A435A608F
:1042E0007B681B6899687B681A682E4B0B4093604B
:1042F0007B681B6899687B681B6C5A1E7B681B6D0A
:104300001A437B689B6C1A437B68DB6C1A437B689F
:104310005B6C013B1B021A437B681B680A439A6073
:104320007B681B68D9687B681A684FF220030B40D2
:10433000D3607B681B68D9687B685A6D7B689B6D0E
:104340001A437B681B6E1B041A437B68DB6D013BC1
:104350001B021A437B681B680A43DA607B680022F1
:10436000C3F880207B68012283F87D207B680022CF
:1043700083F87C20002318462037BD4680BD00BF4F
:10438000045801402458014000580140005C01409D
:10439000045C0140245C0140CDCCCCCC10C005FFB6
:1043A000F01FFFFF0080F8FF90B484B000AF78608A
:1043B000164B1B68164AA2FB03231B0B9C00002311
:1043C000FB737B681B681A687B681B6822F4803269
:1043D0001A6023465C1E002B0AD17B68D3F880301C
:1043E00043F040027B68C3F880200323FB7306E0A0
:1043F0007B681B681B6803F48033002BE9D1FB7BCF
:1044000018461037BD4690BC704700BF0C00002016
:104410001BECCB9580B582B000AF786039607B68CB
:10442000002B01D1012325E07B6893F82C30DBB20F
:10443000002B06D17B68002283F82D20786803F0DA
:104440008BFF7B68022283F82C207B681A687B68CC
:1044500004331946104601F099FE7B6818687B68A2
:104460005B681A46396801F003FF7B68012283F814
:104470002C20002318460837BD4680BD80B584B087
:1044800000AF78607B68002B01D101234CE07B6892
:1044900093F84530DBB2002B06D17B68002283F80D
:1044A0004420786803F0E4FC7B68022283F845200E
:1044B0007B681B681A687B681B6822F003021A601D
:1044C0007B681B681B68FB60FA68194B1340FB6034
:1044D0007B689A697B685B681A437B689B681A43B0
:1044E0007B68DB681A437B681B691A437B685B69DE
:1044F0001A437B68DB691A437B681B6A1A437B6833
:104500005B6A1A437B689B6A1343FA681343FB6038
:104510007B681B68FA681A607B6800229A647B6873
:10452000012283F84520002318461037BD4680BD80
:104530000784F8FF80B584B000AF78607B68002BFB
:1045400001D1012384E07B6800229A627B6893F8A2
:104550005D30DBB2002B06D17B68002283F85C2043
:10456000786803F0C7FC7B68022283F85D207B68D3
:104570001B681A687B681B6822F040021A607B681F
:10458000DB68B3F5E06F02D90023FB6002E04FF473
:104590008053FB607B68DB68B3F5706F07D07B6886
:1045A000DB68B3F5E06F02D07B6800229A627B681B
:1045B0001B6B002B0BD17B68DB68B3F5E06F03D975
:1045C0007B6802221A6302E07B6801221A637B681F
:1045D0005A687B689B681A437B681B691A437B682F
:1045E0005B691A437B689B6903F400731A437B6819
:1045F000DB691A437B681B6A42EA03017B689A6A9B
:104600007B681B680A431A607B689B691B0C03F07C
:1046100004027B685B6A1A437B685B6B1A437B68A6
:10462000DB6842EA03017B681B68FA680A435A6048
:104630007B681B68DA697B681B6822F40062DA61B8
:104640007B6800221A667B68012283F85D200023C4
:1046500018461037BD4680BD80B582B000AF786087
:104660007B68002B01D101231DE07B6893F83D306E
:10467000DBB2002B06D17B68002283F83C207868EF
:1046800003F09AFC7B68022283F83D207B681A685D
:104690007B6804331946104600F0B6FC7B680122A3
:1046A00083F83D20002318460837BD4680BD000032
:1046B00080B485B000AF78607B681B68DA687B687F
:1046C0001B6842F00102DA607B681B689A680C4B39
:1046D0001340FB60FB68062B0BD0FB68B3F5803FF3
:1046E00007D07B681B681A687B681B6842F0010270
:1046F0001A60002318461437BD465DF8047B7047E6
:104700000700010080B582B000AF78607B68002BA5
:1047100001D101231DE07B6893F83D30DBB2002B13
:1047200006D17B68002283F83C20786800F015F8F9
:104730007B68022283F83D207B681A687B6804331B
:104740001946104600F060FC7B68012283F83D208A
:10475000002318460837BD4680BD80B483B000AF43
:10476000786000BF0C37BD465DF8047B70470000E1
:1047700080B584B000AF786039603B680C2B41D8BD
:1047800001A252F823F000BFBD4700080548000809
:104790000548000805480008CF47000805480008FC
:1047A0000548000805480008E147000805480008DA
:1047B0000548000805480008F34700087B681B68A7
:1047C000DA687B681B6842F00202DA601BE07B68F3
:1047D0001B68DA687B681B6842F00402DA6012E04A
:1047E0007B681B68DA687B681B6842F00802DA6045
:1047F00009E07B681B68DA687B681B6842F010027E
:10480000DA6000E000BF7B681B6801223968184647
:1048100000F092FF7B681B68174A934204D07B68C4
:104820001B68164A934201D1012300E00023002BAC
:1048300007D07B681B685A6C7B681B6842F4004297
:104840005A647B681B689A680D4B1340FB60FB68D9
:10485000062B0BD0FB68B3F5803F07D07B681B6845
:104860001A687B681B6842F001021A600023184630
:104870001037BD4680BD00BF00000140000401406C
:104880000700010080B582B000AF78607B68002B24
:1048900001D101231DE07B6893F83D30DBB2002B92
:1048A00006D17B68002283F83C20786800F015F878
:1048B0007B68022283F83D207B681A687B6804339A
:1048C0001946104600F0A0FB7B68012283F83D20CA
:1048D000002318460837BD4680BD80B483B000AFC2
:1048E000786000BF0C37BD465DF8047B704780B52B
:1048F00082B000AF78607B681B681B6903F002031D
:10490000022B22D17B681B68DB6803F00203022BB9
:104910001BD17B681B686FF002021A617B68012261
:104920001A777B681B689B6903F00303002B03D095
:10493000786800F04BFB05E0786801F024FD7868AA
:1049400000F04EFB7B6800221A777B681B681B69AE
:1049500003F00403042B22D17B681B68DB6803F09F
:104960000403042B1BD17B681B686FF004021A61DF
:104970007B6802221A777B681B689B6903F440738B
:10498000002B03D0786800F021FB05E0786801F087
:10499000FAFC786800F024FB7B6800221A777B68B9
:1049A0001B681B6903F00803082B22D17B681B6876
:1049B000DB6803F00803082B1BD17B681B686FF0D2
:1049C00008021A617B6804221A777B681B68DB691E
:1049D00003F00303002B03D0786800F0F7FA05E03A
:1049E000786801F0D0FC786800F0FAFA7B68002261
:1049F0001A777B681B681B6903F01003102B22D108
:104A00007B681B68DB6803F01003102B1BD17B68ED
:104A10001B686FF010021A617B6808221A777B68A6
:104A20001B68DB6903F44073002B03D0786800F047
:104A3000CDFA05E0786801F0A6FC786800F0D0FABD
:104A40007B6800221A777B681B681B6903F00103EF
:104A5000012B0ED17B681B68DB6803F00103012B7F
:104A600007D17B681B686FF001021A61786802F059
:104A700071FE7B681B681B6903F08003802B0ED1DD
:104A80007B681B68DB6803F08003802B07D17B68A1
:104A90001B686FF080021A61786800F057FF7B682E
:104AA0001B681B6903F48073B3F5807F0ED17B68AC
:104AB0001B68DB6803F08003802B07D17B681B68D1
:104AC0006FF480721A61786800F04AFF7B681B6897
:104AD0001B6903F04003402B0ED17B681B68DB6829
:104AE00003F04003402B07D17B681B686FF0400246
:104AF0001A61786800F07EFA7B681B681B6903F016
:104B00002003202B0ED17B681B68DB6803F0200399
:104B1000202B07D17B681B686FF020021A61786830
:104B200000F00AFF00BF0837BD4680BD80B584B0E5
:104B300000AFF860B9607A60FB6893F83C30012BF5
:104B400001D102236CE0FB68012283F83C20FB6862
:104B5000022283F83D207B68142B57D801A252F81B
:104B600023F000BFB94B00080D4C00080D4C0008A5
:104B70000D4C0008C74B00080D4C00080D4C0008F8
:104B80000D4C0008D54B00080D4C00080D4C0008DA
:104B90000D4C0008E34B00080D4C00080D4C0008BC
:104BA0000D4C0008F14B00080D4C00080D4C00089E
:104BB0000D4C0008FF4B0008FB681B68B9681846DD
:104BC00000F0C2FA23E0FB681B68B968184600F0E1
:104BD0002DFB1CE0FB681B68B968184600F09EFBC3
:104BE00015E0FB681B68B968184600F00DFC0EE084
:104BF000FB681B68B968184600F05EFC07E0FB68BC
:104C00001B68B968184600F0A9FC00E000BFFB680B
:104C1000012283F83D20FB68002283F83C2000231A
:104C200018461037BD4680BD80B584B000AFF8602F
:104C3000B9607A60FB6893F83C30012B01D1022304
:104C400005E1FB68012283F83C20FB68022283F81F
:104C50003D207B68142B00F2F08001A252F823F073
:104C6000B54C00083B4E00083B4E00083B4E000888
:104C7000F54C00083B4E00083B4E00083B4E000838
:104C8000374D00083B4E00083B4E00083B4E0008E5
:104C9000774D00083B4E00083B4E00083B4E000895
:104CA000B94D00083B4E00083B4E00083B4E000843
:104CB000F94D0008FB681B68B968184600F044FA13
:104CC000FB681B689A69FB681B6842F008029A61DE
:104CD000FB681B689A69FB681B6822F004029A61F2
:104CE000FB681B689969BB681A69FB681B680A4303
:104CF0009A61A3E0FB681B68B968184600F096FA51
:104D0000FB681B689A69FB681B6842F400629A6141
:104D1000FB681B689A69FB681B6822F480629A61D1
:104D2000FB681B689969BB681B691A02FB681B68F2
:104D30000A439A6182E0FB681B68B968184600F074
:104D4000EDFAFB681B68DA69FB681B6842F0080231
:104D5000DA61FB681B68DA69FB681B6822F00402F1
:104D6000DA61FB681B68D969BB681A69FB681B6854
:104D70000A43DA6162E0FB681B68B968184600F014
:104D800043FBFB681B68DA69FB681B6842F400623E
:104D9000DA61FB681B68DA69FB681B6822F48062D1
:104DA000DA61FB681B68D969BB681B691A02FB687A
:104DB0001B680A43DA6141E0FB681B68B968184662
:104DC00000F07AFBFB681B685A6DFB681B6842F0B9
:104DD00008025A65FB681B685A6DFB681B6822F065
:104DE00004025A65FB681B68596DBB681A69FB6849
:104DF0001B680A435A6521E0FB681B68B9681846BE
:104E000000F0ACFBFB681B685A6DFB681B6842F442
:104E100000625A65FB681B685A6DFB681B6822F4C8
:104E200080625A65FB681B68596DBB681B691A0272
:104E3000FB681B680A435A6500E000BFFB6801225B
:104E400083F83D20FB68002283F83C2000231846AD
:104E50001037BD4680BD00BF80B584B000AF78601C
:104E600039607B6893F83C30012B01D10223A6E026
:104E70007B68012283F83C207B68022283F83D2076
:104E80007B681B689B68FB60FA684F4B1340FB60B4
:104E9000FB6823F47F43FB607B681B68FA689A60B9
:104EA0003B681B68402B67D0402B0BD8102B73D06E
:104EB000102B02D8002B6FD078E0202B6CD0302B39
:104EC0006AD073E0702B0DD0702B04D8502B33D0E8
:104ED000602B41D06AE0B3F5805F66D0B3F5005F28
:104EE00017D063E07B6818683B6899683B685A682C
:104EF0003B68DB6800F000FC7B681B689B68FB601C
:104F0000FB6843F07703FB607B681B68FA689A6074
:104F10004CE07B6818683B6899683B685A683B6856
:104F2000DB6800F0E9FB7B681B689A687B681B689C
:104F300042F480429A6039E07B6818683B6859689F
:104F40003B68DB681A4600F05DFB7B681B685021FC
:104F5000184600F0B6FB29E07B6818683B68596882
:104F60003B68DB681A4600F07CFB7B681B686021AD
:104F7000184600F0A6FB19E07B6818683B68596882
:104F80003B68DB681A4600F03DFB7B681B684021EC
:104F9000184600F096FB09E07B681A683B681B68BE
:104FA0001946104600F08DFB00E000BF7B6801222F
:104FB00083F83D207B68002283F83C2000231846BC
:104FC0001037BD4680BD00BF88FFFEFF80B483B0B0
:104FD00000AF786000BF0C37BD465DF8047B7047BA
:104FE00080B483B000AF786000BF0C37BD465DF879
:104FF000047B704780B483B000AF786000BF0C378B
:10500000BD465DF8047B704780B485B000AF786022
:1050100039607B681B68FB607B68404A934213D011
:105020007B68B3F1804F0FD07B683D4A93420BD031
:105030007B683C4A934207D07B683B4A934203D04B
:105040007B683A4A934208D1FB6823F07003FB6007
:105050003B685B68FA681343FB607B682F4A9342A6
:105060002BD07B68B3F1804F27D07B682C4A9342CA
:1050700023D07B682B4A93421FD07B682A4A9342F5
:105080001BD07B68294A934217D07B68284A9342F9
:1050900013D07B68274A93420FD07B68264A9342FD
:1050A0000BD07B68254A934207D07B68244A934201
:1050B00003D07B68234A934208D1FB6823F44073F2
:1050C000FB603B68DB68FA681343FB60FB6823F016
:1050D00080023B685B691343FB607B68FA681A6077
:1050E0003B689A687B68DA623B681A687B689A62F8
:1050F0007B680A4A934203D07B680C4A934203D1EF
:105100003B681A697B681A637B6801225A6100BF99
:105110001437BD465DF8047B704700BF00000140B6
:105120000004004000080040000C00400004014062
:105130000040014000440140004801400018004088
:10514000001C00400020004080B487B000AF7860B1
:1051500039607B681B6A23F001027B681A627B68F6
:105160001B6A7B617B685B683B617B689B69FB605A
:10517000FA682B4B1340FB60FB6823F00303FB60D2
:105180003B681B68FA681343FB607B6923F00203EA
:105190007B613B689B687A6913437B617B68214A2A
:1051A000934203D07B68204A93420CD17B6923F061
:1051B00008037B613B68DB687A6913437B617B6929
:1051C00023F004037B617B68164A934203D07B681B
:1051D000154A934211D13B6923F480733B613B69CB
:1051E00023F400733B613B685B693A6913433B619D
:1051F0003B689B693A6913433B617B683A695A6033
:105200007B68FA689A613B685A687B685A637B6876
:105210007A691A6200BF1C37BD465DF8047B70478F
:105220008FFFFEFF000001400004014080B487B002
:1052300000AF786039607B681B6A23F010027B68DE
:105240001A627B681B6A7B617B685B683B617B6879
:105250009B69FB60FA682E4B1340FB60FB6823F4EC
:105260004073FB603B681B681B02FA681343FB60DA
:105270007B6923F020037B613B689B681B017A6993
:1052800013437B617B68234A934203D07B68224AA5
:1052900093420DD17B6923F080037B613B68DB681F
:1052A0001B017A6913437B617B6923F040037B61B7
:1052B0007B68184A934203D07B68174A934213D104
:1052C0003B6923F480633B613B6923F400633B61EA
:1052D0003B685B699B003A6913433B613B689B6990
:1052E0009B003A6913433B617B683A695A607B686B
:1052F000FA689A613B685A687B689A637B687A6946
:105300001A6200BF1C37BD465DF8047B704700BFC2
:10531000FF8FFFFE000001400004014080B487B011
:1053200000AF786039607B681B6A23F480727B6809
:105330001A627B681B6A7B617B685B683B617B6888
:10534000DB69FB60FA682D4B1340FB60FB6823F0C0
:105350000303FB603B681B68FA681343FB607B69CF
:1053600023F400737B613B689B681B027A691343DB
:105370007B617B68224A934203D07B68214A934237
:105380000DD17B6923F400637B613B68DB681B0202
:105390007A6913437B617B6923F480637B617B685B
:1053A000174A934203D07B68164A934213D13B6954
:1053B00023F480533B613B6923F400533B613B681A
:1053C0005B691B013A6913433B613B689B691B01A5
:1053D0003A6913433B617B683A695A607B68FA68B3
:1053E000DA613B685A687B68DA637B687A691A62BB
:1053F00000BF1C37BD465DF8047B70478FFFFEFF82
:10540000000001400004014080B487B000AF786024
:1054100039607B681B6A23F480527B681A627B6860
:105420001B6A3B617B685B687B617B68DB69FB6057
:10543000FA681E4B1340FB60FB6823F44073FB606B
:105440003B681B681B02FA681343FB603B6923F44B
:1054500000533B613B689B681B033A6913433B6104
:105460007B68134A934203D07B68124A934209D166
:105470007B6923F480437B613B685B699B017A69AC
:1054800013437B617B687A695A607B68FA68DA61EA
:105490003B685A687B681A647B683A691A6200BF85
:1054A0001C37BD465DF8047B704700BFFF8FFFFED1
:1054B000000001400004014080B487B000AF786074
:1054C00039607B681B6A23F480327B681A627B68D0
:1054D0001B6A3B617B685B687B617B685B6DFB6023
:1054E000FA681B4B1340FB603B681B68FA68134368
:1054F000FB603B6923F400333B613B689B681B0402
:105500003A6913433B617B68124A934203D07B683C
:10551000114A934209D17B6923F480337B613B6854
:105520005B691B027A6913437B617B687A695A6005
:105530007B68FA685A653B685A687B689A657B683D
:105540003A691A6200BF1C37BD465DF8047B70479C
:105550008FFFFEFF000001400004014080B487B0CF
:1055600000AF786039607B681B6A23F480127B6827
:105570001A627B681B6A3B617B685B687B617B6846
:105580005B6DFB60FA681C4B1340FB603B681B685B
:105590001B02FA681343FB603B6923F400133B6171
:1055A0003B689B681B053A6913433B617B68134A60
:1055B000934203D07B68124A934209D17B6923F45A
:1055C00080237B613B685B699B027A6913437B6143
:1055D0007B687A695A607B68FA685A653B685A68E2
:1055E0007B68DA657B683A691A6200BF1C37BD4682
:1055F0005DF8047B704700BFFF8FFFFE0000014095
:105600000004014080B487B000AFF860B9607A60F0
:10561000FB681B6A7B61FB681B6A23F00102FB6865
:105620001A62FB689B693B613B6923F0F0033B61B5
:105630007B681B013A6913433B617B6923F00A03D2
:105640007B617A69BB6813437B61FB683A699A6145
:10565000FB687A691A6200BF1C37BD465DF8047B9F
:10566000704780B487B000AFF860B9607A60FB68BB
:105670001B6A23F01002FB681A62FB689B697B615E
:10568000FB681B6A3B617B6923F470437B617B6829
:105690001B037A6913437B613B6923F0A0033B61E1
:1056A000BB681B013A6913433B61FB687A699A61E5
:1056B000FB683A691A6200BF1C37BD465DF8047B7F
:1056C000704780B485B000AF786039607B689B68B4
:1056D000FB60FB6823F07003FB603A68FB681343D0
:1056E00043F00703FB607B68FA689A6000BF1437D9
:1056F000BD465DF8047B704780B487B000AFF860AA
:10570000B9607A603B60FB689B687B617B6923F4CE
:105710007F437B613B681A027B681A43BB68134373
:105720007A6913437B61FB687A699A6000BF1C3712
:10573000BD465DF8047B704780B487B000AFF86069
:10574000B9607A60BB6803F01F03012202FA03F319
:105750007B61FB681A6A7B69DB431A40FB681A624B
:10576000FB681A6ABB6803F01F03796801FA03F348
:105770001A43FB681A6200BF1C37BD465DF8047B04
:105780007047000080B485B000AF786039607B68F6
:1057900093F83C30012B01D1022345E07B680122C4
:1057A00083F83C207B68022283F83D207B681B68DD
:1057B0005B68FB607B681B689B68BB607B681B68E1
:1057C0001C4A934204D07B681B681B4A934208D151
:1057D000FB6823F47003FB603B685B68FA68134363
:1057E000FB60FB6823F07003FB603B681B68FA6892
:1057F0001343FB60BB6823F08003BB603B689B687E
:10580000BA681343BB607B681B68FA685A607B68A0
:105810001B68BA689A607B68012283F83D207B6828
:10582000002283F83C20002318461437BD465DF85B
:10583000047B7047000001400004014080B485B043
:1058400000AF786039600023FB607B6893F83C30E0
:10585000012B01D1022365E07B68012283F83C2003
:10586000FB6823F0FF023B68DB681343FB60FB68C7
:1058700023F440723B689B681343FB60FB6823F48E
:1058800080623B685B681343FB60FB6823F4006243
:105890003B681B681343FB60FB6823F480523B6842
:1058A0001B691343FB60FB6823F400523B685B6990
:1058B0001343FB60FB6823F480423B689B6A1343FD
:1058C000FB60FB6823F470223B689B691B04134355
:1058D000FB607B681B68164A934204D07B681B6898
:1058E000144A934215D1FB6823F470023B685B6A4B
:1058F0001B051343FB60FB6823F080723B68DB6988
:105900001343FB60FB6823F000723B681B6A134380
:10591000FB607B681B68FA685A647B68002283F826
:105920003C20002318461437BD465DF8047B7047C1
:10593000000001400004014080B483B000AF7860F3
:1059400000BF0C37BD465DF8047B704780B483B060
:1059500000AF786000BF0C37BD465DF8047B704730
:1059600080B483B000AF786000BF0C37BD465DF8EF
:10597000047B704780B582B000AF78607B68002BF5
:1059800001D1012340E07B685B6F002B06D17B686F
:10599000002283F87020786802F0BAFB7B6824222A
:1059A0005A677B681B681A687B681B6822F00102D3
:1059B0001A60786800F02CF80346012B01D101230E
:1059C00022E07B685B6A002B02D0786800F0C4FAA2
:1059D0007B681B685A687B681B6822F490425A6097
:1059E0007B681B689A687B681B6822F02A029A60B1
:1059F0007B681B681A687B681B6842F001021A60AA
:105A0000786800F04BFB034618460837BD4680BD5A
:105A100080B588B000AF78600023BB610023FB75C0
:105A20007B689A687B681B691A437B685B691A43C9
:105A30007B68DB6913433B617B681B681A68B14B69
:105A400013407A68126839690B4313607B681B68DE
:105A50005B6823F440517B68DA687B681B680A4303
:105A60005A607B689B693B617B681B6A3A69134398
:105A70003B617B681B689B6823F430617B681B6813
:105A80003A690A439A607B681B689F4A934221D116
:105A90009E4BD3F8903003F00303032B16D801A2DA
:105AA00052F823F0B55A0008C15A0008BB5A000842
:105AB000C75A00080123FB7751E10223FB774EE12F
:105AC0000423FB774BE10823FB7748E11023FB77A6
:105AD00000BF44E17B681B688D4A934234D18B4BF5
